:020000040800F2
:105000007893002095060608230A0608A5060608D8
:10501000B3060608BF060608330A060800000000AB
:10502000000000000000000000000000370A060831
:105030003B0A0608000000003F0A0608CB060608E7
:105040002507060827070608290706082B0706086C
:105050003F07060841070608430706084D070608EC
:1050600057070608610706086B0706087507060854
:1050700077070608790706087B0706087D070608F4
:105080007F0706088107060883070608930A0608B3
:10509000970A06089B0A06089F0A0608850706085D
:1050A0008D0806088F080608AD080608AF08060830
:1050B000B1080608D9080608ED080608FD08060824
:1050C000FF0806080109060803090608050906087D
:1050D00007090608DB0A060809090608E30A0608A4
:1050E000E70A060811090608130906081509060843
:1050F000170906087D0906087F09060881090608C0
:10510000830906088509060887090608890906082B
:105110008B0906081B0B0608930906089509060863
:1051200097090608990906089B0906089D090608BB
:1051300064E4050002000006000D081A4067030839
:105140004C6703084D4152545552494F4E4C7464BC
:105150000D0A417564696F2066696C65206E6F7415
:1051600020617661696C2030782578000D0A566FD1
:105170006C202564000000000D0A53544F505F500E
:105180004C41593A207072696F726974793D256497
:1051900020737465703D2564000000000D0A2A2A02
:1051A0002A41504920417564696F206D656E752AEA
:1051B0002A2A2A000D0A4573632045786974204D18
:1051C000656E75000D0A64202020646F776E6C6F29
:1051D00061642066696C65000D0A70202020706C87
:1051E00061792066696C65000D0A2B2D2020566FB1
:1051F0006C756D65000000000D0A63432020436854
:10520000697270000D0A762020204C6F7720707232
:10521000696F7269747920616C61726D00000000C1
:105220000D0A562020204D656469756D20707269E5
:105230006F7269747920616C61726D000D0A622071
:10524000202048696768207072696F7269747920DC
:10525000616C61726D0000000D0A732020204765AB
:105260006E2073696E65207761766520617564696B
:105270006F0000000D0A5320202073746F7020739C
:10528000696E65207761766520617564696F0000DD
:105290000D0A456E7465722046696C652061646410
:1052A00020746F20646F776E6C6F61642028307893
:1052B000290D0A30782D2D2D2D2D2D0808080808D0
:1052C000080000000D0A456E7465722046696C6521
:1052D0002061646420746F20706C617920283078BC
:1052E000290D0A30782D2D2D2D2D2D0808080808A0
:1052F000080000000D0A4368697270203100000048
:105300000D0A436869727020320000000D0A4C6F6C
:1053100077207072696F7269747920616C61726D47
:10532000000000000D0A4D656469756D207072699A
:105330006F7269747920616C61726D000D0A486941
:105340006768207072696F7269747920616C61722C
:105350006D0000000D0A44414320696E697400002D
:105360000D0A456E7465722053696E65206672651C
:10537000713A202D2D2D2D08080808000D0A5369BB
:105380006E652077617665202566487A20416D70CC
:10539000256420256473616D706C657300000000E6
:1053A0000D0A44414320616D70206F6E00000000C3
:1053B0000D0A44414320616D70206F666600000055
:1053C0000D0A4D757465206F666600000D0A4D75F7
:1053D0007465206F6E0000000D0A446F776E6C6F6D
:1053E0006164696E6720574156452066696C652087
:1053F0006E6F770D0A0000000D0A486561646572E2
:10540000200D0A0025327820000000000D0A2578C2
:10541000200D0A000D0A46696C65206C6F6320251B
:10542000782D2578000000000D0A446F776E6C6FB0
:105430006164206661696C6564202D204E6F742064
:105440006120524946462066696C65000D0A566F18
:105450006C203D20646573202564202061637420E6
:10546000256400000D0A417564696F20506C6179F4
:105470002046696C650000000D0A4E6F206F6620A3
:105480006368616E6E656C733A20202564000000CD
:105490000D0A53616D706C6520726174653A20204D
:1054A00020202025640000000D0A427974652072D6
:1054B0006174653A2020202020202025640000000F
:1054C0000D0A426C6F636B20616C69676E3A202035
:1054D00020202025640000000D0A6269747320708A
:1054E00065722073616D706C653A20256400000060
:1054F0000D0A6E6F206F662073616D706C65733A74
:105500002020202564000000F4010000E8030000D2
:105510000100000000000000007102000001000016
:10552000F4010000E803000001000000000000009A
:105530004C04000002010000E8030000E803000042
:1055400003000000000000004C0400000401000003
:10555000F4010000E8030000050000000000000066
:10556000409C000000010000F4010000E80300007E
:1055700001000000000000002800000002010000FF
:10558000EE020000E803000003000000000000003D
:105590002800000004010000E8030000E803000008
:1055A00005000000000000004006000006010000A9
:1055B000EE020000E8030000070000000000000009
:1055C0002800000008010000F4010000E8030000CA
:1055D0000900000000000000280A00000A01000085
:1055E000F4010000E80300000B00000000000000D0
:1055F000280000000C010000EE020000E80300009B
:105600000D00000000000000280000000E01000056
:10561000E8030000E80300000F00000000000000A5
:105620004006000010010000EE020000E803000048
:10563000110000000000000028000000120100001E
:10564000F4010000E8030000130000000000000067
:10565000409C000000010000085500080200000006
:1056600020550008060000006855000814000000DE
:105670000D0A3173742054696D6520436F64652091
:1056800052756E0D0A0000000D0A4661696C2043D8
:105690006865636B73756D2054657374000000005A
:1056A0004D4152545552494F4E4C74640000000015
:1056B0000D0A4661696C20436F64655665726966C0
:1056C0007920537472696E670000000043454E44B0
:1056D000000000000D0A4661696C20436F64654557
:1056E0006E6420537472696E670000000D0A56657F
:1056F00072696679204661696C202D20426F6F7453
:10570000204F6C6420636F64650000000D0A5665CD
:1057100072696679204661696C202D20426F6F7432
:1057200020466163746F727920636F6465000000C6
:105730000D0A566572696679205061737300000026
:105740000D0A626F6F746C6F6164657220657272AE
:10575000202D202578202578000000000D426F6F55
:10576000746C6F6164657220412025782000000010
:105770000D0A5265736574000D0A55706461746595
:1057800020426F6F746C6F6164657220706172612A
:105790006D7300000D0A426F6F7453657474696E07
:1057A00067732E636865636B4279746520696E76F2
:1057B000616C696420286D61696E29000D0A496E6B
:1057C000697469616C6973656420282532782920C1
:1057D000202D2025327800000D0A466C61672031AB
:1057E00073742074696D6520202020202D2025648D
:1057F000000000000D0A426F6F742066726F6D200A
:10580000736F7572636520202D20256400000000F1
:105810000D0A54657374696E6720737461747573CF
:10582000202020202D202564000000000D0A4C615E
:10583000737420626F6F7420736F757263652020BC
:105840002D202564000000000D0A20202028536F21
:10585000757263652020302D4E6F74417661696CDE
:1058600020312D6E657720322D6F6C6420332D66CC
:105870006163746F727929000D0A20436F6465209B
:10588000202020202020205620537A202020202055
:105890002020466C61736841646420436865636BD3
:1058A00073756D2056657273696F6E000D0A204E18
:1058B0006577436F646520202020202564203078A0
:1058C00036257820307836257820307825347820B1
:1058D00025642E25642E25642E256420253032640F
:1058E0002F253032642F2530326400000D0A204C01
:1058F000617374436F646520202020256420307814
:105900002536782030782536782030782534782070
:1059100025642E25642E25642E25642025303264CE
:105920002F253032642F2530326400000D0A2046C6
:105930006163746F7279436F6465202564203078E9
:105940002536782030782536782030782534782030
:1059500025642E25642E25642E256420253032648E
:105960002F253032642F2530326400000D0A456E39
:10597000640000000D0A4372656174696E6720530C
:10598000616665636F7079206F662043757272651A
:105990006E7420436F646520696E20466C61736885
:1059A000000000000D0A4372656174696E6720464D
:1059B0006163746F7279436F7079206F66204375ED
:1059C0007272656E7420436F646520696E20466C48
:1059D000617368000D25322E3066252520000000F9
:1059E0000D0A646F6E6500000D0A2A2A2A2A2A2AE7
:1059F0002A2A2A2A2A2A2A2A2A2A2A2A2A2A2A2A07
:105A00002A2A2A2A2A2A2A2A2A2A2A2A2A00000074
:105A10000D0A426F6F746C6F6164696E67206D650B
:105A20006E7500000D0A532020202D2073616665DD
:105A3000636F7079000000000D0A462020202D20A1
:105A4000466163746F7279636F7079000D0A552037
:105A500020202D207570677261646520746F206E40
:105A6000657720636F6465000D0A442020202D2097
:105A70007570677261646520746F20666163746F0E
:105A8000727920636F6465000D0A4C2020202D2060
:105A90007570677261646520746F207361766564E8
:105AA00020636F70790000000D0A492020202D200E
:105AB000696E666F000000000D0A457363202D209B
:105AC0004465627567204D656E7500000D0A44657A
:105AD00062756720436F6D6D73204D6F64650000C4
:105AE0000D0A5361666520636F707920637265618A
:105AF000746564000D0A466163746F727920636F88
:105B00007079206372656174656400000D0A5061EC
:105B1000636B65742043524320457272202D2043ED
:105B2000616C20253478205265632025347800008C
:105B30000D0A747820636D64206E6F74206C697335
:105B40007465642028256329000000000000891185
:105B500012239B322446AD573665BF74488CC19DD5
:105B60005AAFD3BE6CCAE5DB7EE9F7F800008110BE
:105B70000221833104428552066387730884899425
:105B80000AA58BB50CC68DD60EE78FF70D0A2043FC
:105B9000616C6962726174696F6E20506F696E74B6
:105BA00073203D2025332E30662025332E306600AD
:105BB0000D0A2043616C6962726174696F6E2041E5
:105BC0004443202020203D2025382E3166202538D2
:105BD0002E3166000D0A43616C6962726174696FEF
:105BE0006E206D20636865636B2020252E33663C34
:105BF000252E37663C252E33660000000D0A4361D2
:105C00006C6962726174696F6E206320636865639A
:105C10006B2020252E3466000D0A43616C69627288
:105C20006174696F6E207361766564000D0A43616B
:105C30006C6962726174696F6E204E4F542073619B
:105C400076656421212100000D0A2A2A2044657608
:105C5000696365202564204E6F742043616C69621E
:105C60007261746564212044656661756C742056A8
:105C7000616C75657321202A2A00000043414C5F46
:105C8000464C4F575F4F325F6120000043414C5FED
:105C9000464C4F575F4F325F6220000043414C5FDC
:105CA000464C4F575F4F325F6320000043414C5FCB
:105CB000464C4F575F4F325F6420000043414C5FBA
:105CC000464C4F575F4F325F6520000043414C5FA9
:105CD000464C4F575F4149525F61000043414C5F62
:105CE000464C4F575F4149525F62000043414C5F51
:105CF000464C4F575F4149525F63000043414C5F40
:105D0000464C4F575F4149525F64000043414C5F2E
:105D1000464C4F575F4149525F65000043414C5F1D
:105D200053454E534F525F4F3220000043414C5F6A
:105D300053454E534F525F50502000000D0A4361AF
:105D40006C6962726174696F6E2056617273202093
:105D5000202573000D0A2043616C696272617469C9
:105D60006F6E20506F696E7473203D20256620256C
:105D7000660000000D0A204F7574707574203D2078
:105D8000256620414443202B202825662900000059
:105D90000D0A436865636B73756D2072616E67658C
:105DA0003A203078257820746F2030782578206C60
:105DB000656E677468203078257800000D0A4368A6
:105DC00065636B73756D204661696C3A2030782588
:105DD000782028636F756E7465642920767320308F
:105DE000782578202866726F6D2069656C66746FFF
:105DF0006F6C29000D0A436865636B73756D2050E5
:105E00006173732028307825685820697320636F88
:105E10007272656374290000000021104220633013
:105E20008440A550C660E770088129914AA16BB1F2
:105E30008CC1ADD1CEE1EFF131121002733252229A
:105E4000B5529442F772D662399318837BB35AA342
:105E5000BDD39CC3FFF3DEE362244334200401146A
:105E6000E664C774A44485546AA54BB52885099592
:105E7000EEE5CFF5ACC58DD553367226111630063A
:105E8000D776F6669556B4465BB77AA719973887E2
:105E9000DFF7FEE79DD7BCC7C448E5588668A778FA
:105EA0004008611802282338CCC9EDD98EE9AFF932
:105EB000488969990AA92BB9F55AD44AB77A966ADA
:105EC000711A500A333A122AFDDBDCCBBFFB9EEB82
:105ED000799B588B3BBB1AABA66C877CE44CC55CAA
:105EE000222C033C600C411CAEED8FFDECCDCDDDD2
:105EF0002AAD0BBD688D499D977EB66ED55EF44E7A
:105F0000133E322E511E700E9FFFBEEFDDDFFCCF21
:105F10001BBF3AAF599F788F8891A981CAB1EBA175
:105F20000CD12DC14EF16FE18010A100C230E320F1
:105F30000450254046706760B9839893FBA3DAB399
:105F40003DC31CD37FE35EF3B1029012F322D23241
:105F50003542145277625672EAB5CBA5A895898569
:105F60006EF54FE52CD50DC5E234C324A014810491
:105F70006674476424540544DBA7FAB79987B89739
:105F80005FE77EF71DC73CD7D326F2369106B016E1
:105F900057667676154634564CD96DC90EF92FE9F9
:105FA000C899E9898AB9ABA9445865480678276831
:105FB000C018E1088238A3287DCB5CDB3FEB1EFBD9
:105FC000F98BD89BBBAB9ABB754A545A376A167A81
:105FD000F10AD01AB32A923A2EFD0FED6CDD4DCDA9
:105FE000AABD8BADE89DC98D267C076C645C454CD1
:105FF000A23C832CE01CC10C1FEF3EFF5DCF7CDF79
:106000009BAFBABFD98FF89F176E367E554E745E20
:10601000932EB23ED10EF01E0D0A25642C00000016
:10602000252E31662C000000252E32662C00000043
:1060300025642C252E32662C252E32662C25642CC8
:10604000252E32662C0000002533642C0000000051
:1060500025642C25662C25642C0000000D0A2A2AB4
:106060002A2A54535409494F206D656E752A2A2AED
:106070002A0000000D0A45736309204578697420E1
:106080004D656E75000000000D0A70202020207004
:1060900072696E74206D6F64650000000D0A303106
:1060A00032332043616C6962726174696F6E207370
:1060B000657100000D0A342020202043616C696264
:1060C000726174696F6E2076617273000D0A71518E
:1060D00020202056616C7665204E6562756C697370
:1060E000657200000D0A775720202056616C766596
:1060F000204F322063616C6962726174696F6E0057
:106100000D0A654520202056616C76652056656E27
:106110007475726920456E20000000000D0A617AD6
:1061200041202050574D2041697200000D0A7378BC
:1061300053202050574D204F320000000D0A646359
:1061400044202050574D2056656E747572690000CA
:106150000D0A7656202020536166657479204375B8
:10616000744F7574000000000D0A62202020206228
:10617000757A7A6572207265736574000D0A6E4EC9
:1061800020202053656E736F72203556656E0000B7
:106190000D0A212020202056616C76652031736520
:1061A0006320696E6372656D656E742F64656372DA
:1061B000656D656E740000000D0A66202020204683
:1061C000616E00000D0A54657374204D6F64652084
:1061D0003D202564000000000D0A456E74657220A4
:1061E0004149522050574D203A2D2D2D2D2D080874
:1061F000080808000D0A456E746572204F32205061
:10620000574D203A2D2D2D2D2D0808080808000087
:106210000D0A456E7465722056656E747572694616
:106220006C6F772050574D203A2D2D2D2D2D0808BD
:10623000080808000D0A4375746F757420456E6177
:10624000626C6564000000000D0A4375746F75741C
:106250002044697361626C6564202D204E6F726DFD
:10626000616C2075736500000D0A526573657420BA
:10627000746865207761746368646F675F62757ABC
:106280002F7361667479206375746F7574000000F4
:106290000D0A53656E736F7220355620706F7765E7
:1062A00072206F66660000000D0A53656E736F7290
:1062B00020355620706F776572206F6E00000000E9
:1062C0000D0A5768696368206465766963652069AB
:1062D00073206265696E672063616C6962726174C4
:1062E00065643F000D0A203020202D2043414C5F83
:1062F000464C4F575F4F325F610000000D0A20315E
:1063000020202D2043414C5F464C4F575F4F325F5A
:10631000620000000D0A203220202D2043414C5FF6
:10632000464C4F575F4F325F630000000D0A203329
:1063300020202D2043414C5F464C4F575F4F325F2A
:10634000640000000D0A203420202D2043414C5FC2
:10635000464C4F575F4F325F650000000D0A2035F5
:1063600020202D2043414C5F464C4F575F414952FE
:106370005F6100000D0A203620202D2043414C5F34
:10638000464C4F575F4149525F6200000D0A20376B
:1063900020202D2043414C5F464C4F575F414952CE
:1063A0005F6300000D0A203820202D2043414C5F00
:1063B000464C4F575F4149525F6400000D0A203937
:1063C00020202D2043414C5F464C4F575F4149529E
:1063D0005F6500000D0A203130202D2043414C5FC5
:1063E00053454E534F525F4F320000000D0A20318B
:1063F00031202D2043414C5F53454E534F525F5047
:10640000500000000D0A3A2D080000000D0A476FE9
:1064100020746F206C6F772020706F696E74202855
:106420007468656E2070726573732031290D0A00DF
:106430000D0A414443206361707475726564202DB8
:1064400020456E74657220746865206C6F7720201B
:1064500063616C6962726174696F6E2076616C75DC
:1064600065203A2D2D2D2D2D080808080800000064
:106470000D0A476F20746F206869676820706F6924
:106480006E7420287468656E207072657373203294
:10649000290D0A000D0A414443206361707475722E
:1064A0006564202D20456E746572207468652068CF
:1064B0006967682063616C6962726174696F6E20DC
:1064C00076616C7565203A2D2D2D2D2D0808080854
:1064D000080000000D0A5072657373203309746F51
:1064E0002063616C63756C6174650D0A00000000C7
:1064F0000D0A43616C2066696E6973686564202DBE
:106500000000000050415353000000004641494C38
:10651000000000000D0A20496E76616C696420431A
:106520006F6D6D616E6400000D0A2A2A2A2A545389
:1065300054094C4544206D656E752A2A2A2A0000AC
:106540000D0A4573630920202045786974204D6544
:106550006E7500000D0A71776572202020507772E9
:10656000204C4544000000000D0A61736466202041
:1065700020416C61726D204C454400000D0A7A7810
:106580006376202020424154204C454420477265C8
:10659000656E00000D0A5A5843562020204241548F
:1065A000204C454420524544000000000D0A20497B
:1065B0006E76616C696420436F6D6D616E6400007E
:1065C0000D0A4C61737420526573657420536F75A6
:1065D000726365202E2E2E2000000000536F66741B
:1065E0007761726520000000504F522F50445220B6
:1065F000200000005757446F672020202000000033
:106600004957446F672020202000000050696E2009
:1066100020202020200000004C6F77506F7765729B
:10662000200000004E6F6E65000000000D0A202D56
:106630002D2D2D2D2D2D2D2D2D2D2D2D2D2D2D2D8A
:106640002D2D2D2D2D2D2D2D2D2D2D2D2D2D0000D4
:106650000D0A206170692053544D333220696E74E5
:10666000205254432054657374206D656E7500008C
:106670000D0A4573632045786974204D656E750079
:106680000D0A72202020526561642020525443205C
:1066900056616C7565287365632900000D0A7720C3
:1066A00020205772697465205254432056616C75DE
:1066B00065287365632900000D0A52202020526569
:1066C000616420205254432056616C7565287469BA
:1066D0006D652E68290000000D0A57202020577292
:1066E000697465205254432056616C75652874693D
:1066F0006D652E68290000000D0A52544320766112
:106700006C756520286E6F772920203D20256C64EC
:10671000000000000D0A456E74657220525443203B
:1067200074696D6520696E20733A2D2D2D2D2D2DE8
:106730002D2D2D2D08080808080808080808000055
:106740000A0D5254432074696D653A202573202543
:106750006425732564202532643A253032642E2561
:10676000303264000A0D456E74657220596561729D
:106770000A0D202D2D2D2D0D3A0000000A0D456E1D
:10678000746572204D6F6E74680A0D202D2D0D3AC0
:10679000000000000A0D456E746572204461746546
:1067A0000A0D202D2D0D3A000A0D456E74657220DC
:1067B000486F757220696E20323448206D6F6465B1
:1067C0000A0D202D2D0D3A000A0D456E74657220BC
:1067D0006D696E7574650A0D202D2D0D3A0000004F
:1067E0000D0A456E74657220556E6974205365728A
:1067F00069616C204E6F3A2D2D2D2D2D2D2D2D08DC
:1068000008080808080808000D0A5072657373200C
:106810005320746F2073617665206F722045534357
:10682000202D00000D0A536176696E67202E2E0020
:10683000446F6E65000000000D0A457869742028D9
:106840006E6F742053617665642900000D0A556EE1
:1068500069742053657269616C4E6F2020000000DE
:106860002A4E6F7420417661696C2A000D546F7551
:106870006368202564202564202825642928256450
:106880002025642928256420256429000D0A5354F5
:106890004D20556E69717565494420202D200000FA
:1068A00025303278000000000D0A202D2D2D2D2DD1
:1068B0002D2D2D2D2D2D2D2D2D2D2D2D2D2D2D2D08
:1068C0002D2D2D2D2D2D2D2D2D2D00000D0A20616E
:1068D00070692053746F707761746368204D656EC2
:1068E000750000000D0A4573632045786974204DDA
:1068F000656E75000D0A312020205374617274009A
:106900000D0A3220202053746F7000000D0A3320CE
:1069100020205265736574000D0A342020205374C2
:106920006172742F53746F70000000000D53746116
:106930007274202020202020202020200D0A00001A
:106940000D53746F70202020202020202020202034
:106950000D0A00000D526573657420202020202050
:10696000202020200D0A00000D53746172742F53F3
:10697000746F7020546F67200D0A00000D2564208D
:106980002025643A2532643A253264200000000054
:106990000D0A414443202D204E6F206261747465BE
:1069A00072792044657465637465642025312E31E5
:1069B000665600000D0A414443202D204465616461
:1069C00020626174746572792044657465637465CE
:1069D000642025312E316656000000000D0A414426
:1069E00043202D204261747465727920446574657A
:1069F000637465642025312E316656000D0A4932D4
:106A00004320657272202D626174746572792D69FC
:106A10006E6974000D0A4261742073746174757339
:106A200020726573746F72656420627574206E6F76
:106A30007420757064617465640000000D0A426121
:106A4000742073746174757320726573746F7265EA
:106A500064202D206D6178000D0A426174207374EA
:106A60006174757320726573746F726564202D2074
:106A70006D696E000D0A42617420737461747573E0
:106A800020726573746F7265642061732073617620
:106A9000656400000D0A426174207374617475733B
:106AA000206E6F7420726573746F726564202100AC
:106AB0000D0A426174206661756C74202D20726528
:106AC0007365742063686172676520746F2030009D
:106AD0000D0A49324320657272202D62617474651B
:106AE00072792D72656164000D0A4675656C2047E8
:106AF00061756765202D20536574204D61782043B2
:106B000068617267650000000D0A424154203F3FF2
:106B1000000000000D0A42415420636861726769F9
:106B20006E6700000D0A4241542063686172676518
:106B3000640000000D0A4241542064697363686177
:106B40007267696E670000000D0A424154202D2DC6
:106B5000000000000D0A2D2D2D2D2D2D2D2D2D2D5C
:106B60002D2D2D2D2D2D2D2D2D2D2D2D2D2D2D2D55
:106B70002D2D2D2D2D0000000D0A2020202020205D
:106B8000202020202054657374204D656E75000010
:106B90000D0A6320202043616C6962726174652074
:106BA000546F7563682053637265656E0000000062
:106BB0000D0A7220202053656C66636865636B2044
:106BC000526573756C7473000D0A4F202020536555
:106BD0006C656374204F322053656E736F720000D2
:106BE0000D0A4E202020536574204E6562756C6935
:106BF00073657220466C6F772052617465000000E7
:106C00000D0A3720202043616C696272617465202F
:106C10005061726163756265204F322053656E73F7
:106C20006F7200000D0A38202020536574206D69B2
:106C30006E204F3220636F6E630000000D0A392012
:106C40002020536574206D6178204F3220636F6E71
:106C5000630000000D0A55202020556E6C6F636B99
:106C60002050574D206D696E696D756D00000000F4
:106C70000D0A41707020436F6D6D73204D6F646518
:106C8000000000000D0A43616C6962726174652046
:106C90004F322050617261637562652053656E7377
:106CA0006F7200000D0A456E74657220746865206D
:106CB0006D696E204F3220636F6E63656E74726112
:106CC00074696F6E202830203C20636F6E63203C17
:106CD0003D203231293A2D2D2525080808000000D5
:106CE0002525202D204E6F742076616C696400008C
:106CF0000D0A456E74657220746865206D61782098
:106D00004F3220636F6E63656E74726174696F6E6B
:106D1000202830203C20636F6E63203C3D203130C2
:106D200030293A2D2D2D2525080808000D0A456E1D
:106D300074657220746865204E6562756C69736550
:106D40007220664C6F772072617465202830203C79
:106D500020636F6E63203C3D20392E3939293A2D4E
:106D60002E2D2D4C2F6D696E08080808080808089C
:106D7000080000004C2F6D696E202D204E6F74208E
:106D800076616C6964000000496E76616C6964200C
:106D90004368617261637465720D0A000D0A2A20EE
:106DA00020206D6F646573206F66206F706572615F
:106DB00074696F6E20617661696C61626C65000058
:106DC0000D0A6D202020466C617368204D656D2092
:106DD0004D656E75000000000D0A61202020417590
:106DE00064696F204D656E75000000000D0A772004
:106DF000202053746F707761746368204D656E75E1
:106E0000000000000D0A6F202020494F2074657398
:106E100074204D656E7500000D0A6C2020204C43D7
:106E2000442074657374204D656E75000D0A312021
:106E300020204144373739342074657374204D6500
:106E40006E7500000D0A322020204C4544732074DA
:106E5000657374204D656E75000000000D0A3320C7
:106E600020206675656C20677561676520746573A1
:106E700074204D656E7500000D0A3420202050618D
:106E8000726163756265204F320000000D0A352083
:106E9000202053656C66636865636B20546573746A
:106EA000000000000D0A742020205254430000000E
:106EB0000D0A732020205365742053657269616C3C
:106EC000204E6F000D0A70202020446562756720F7
:106ED000504944000D0A5020202044656275672007
:106EE00050617469656E7420507265737375726554
:106EF000000000000D0A7D20202044656275672097
:106F00004F3200000D0A7B20202044656275672007
:106F1000746F75636873637265656E206F757470E6
:106F2000757400000D0A292020205072696E7420AB
:106F300043616C6962726174696F6E20496E666F3D
:106F4000000000000D0A282020205072696E742075
:106F5000666C6F772041444320496E666F000000E5
:106F60000D0A24202020456E7465722074656D70B2
:106F7000657261747572652063616C6962726174B7
:106F8000696F6E206C696E65730000000D0A203514
:106F90005620736967203D20256600000D0A546560
:106FA0006D7065726174757265203D202566000004
:106FB000414443202830322020666C6F77292025F9
:106FC00064200000414443202841697220666C6FB0
:106FD00077292025642000000D0A456E7465722013
:106FE000746865204F32206772616469656E742031
:106FF000283520642E702E293A202D000D0A456E6A
:1070000074657220746865204F32206F6666736500
:10701000743A20000D0A456E74657220746865200C
:10702000416972206772616469656E742028352039
:10703000642E702E293A202D000000000D0A456EA6
:107040007465722074686520416972206F6666738A
:1070500065743A20000000000D0A456E74657220C8
:10706000746865204F32206772616469656E743A96
:1070700020252E35660000000D0A456E74657220CD
:10708000746865204F32206F66667365743A2025F8
:107090002E3166000D0A456E746572207468652095
:1070A000416972206772616469656E743A20252EA9
:1070B000356600000D0A456E74657220746865209F
:1070C000416972206F66667365743A20252E3166B9
:1070D000000000000D0A436F6E6669726D3A2079F8
:1070E0002F6E00000D0A53657474696E6773207308
:1070F00061766564000000000D0A53657474696E62
:1071000067732064697363617264656400000000E2
:107110000D0A496E76616C6964204368617261632F
:10712000746572000D0A2530336420252E336620E5
:1071300025303464202564202530332E3366202505
:1071400030332E3166202530332E31662025303302
:1071500064202530336420253033642025642025C5
:10716000640000000D0A50617469656E74205072ED
:107170006573737572655F7072696E742025640043
:107180000D0A456E642043616C6962726174696FB7
:107190006E2070726F63657373202D204661696C79
:1071A000000000000D0A456E642043616C69627244
:1071B0006174696F6E2070726F63657373202D2028
:1071C0004E6F742073746172746564000D0A2A2A0C
:1071D0002A2A2A2A2A2A2A2A2A2A2A2A2A2A2A2A0F
:1071E0002A2A2A2A2A2A2A2A2A2A2A2A2A2A2A2AFF
:1071F0002A2A2A2A2A2A2A2A2A2A2A2A2A2A2A2AEF
:107200002A0000000D0A2A20537570706C79206CDA
:107210006F737420412564204F256421212041642F
:107220006A757374696E6720666C6F77207061721F
:10723000616D65746572732121202A000D0A212178
:10724000506E65756D61746963204461746120736B
:10725000747275637420696E697469616C697365B1
:10726000642121000D0A4F322073656E736F722006
:1072700073656C6563742020000000004D41583236
:107280003530000050415241435542450000000056
:107290004E6F7420646566696E65642070726F70ED
:1072A00065726C79202021214661756C7421210062
:1072B0000D0A4F32206D696E696D756D20636F6EBA
:1072C0006320202025642525000000000D0A4F3290
:1072D000206D6178696D756D20636F6E632020206D
:1072E00025642525000000000D0A4E656220666CAD
:1072F0006F772072617465202020202025312E3286
:10730000664C2F6D696E00000D0A257820257820C7
:107310002578202578202578202578000D0A2564F9
:107320002C25642C49646C652C2533642C2533642E
:107330002C2C2C2C2C2C252E32662C2C252E326617
:10734000000000000D0A25642C25642C5368757418
:10735000646F776E2C2533642C2533642C00000079
:107360000D0A25642C25642C4E6F726D616C2028EB
:107370004F32206374726C292C25642C252E3266C2
:107380002C252E32662C252E32662C252E32662C8C
:10739000252E34662C252E34662C252E32662C257F
:1073A0002E32662C252E32662C252E32662C256434
:1073B0002C25642C252E32662C252E32662C252E6B
:1073C000326600000D0A25642C25642C56656E7407
:1073D0007572692C25642C252E32662C25642C258B
:1073E0002E32662C252E32662C252E326620252E36
:1073F00032662C252E3266000D0A25642C25642C5D
:10740000466C6F7720285465737420416972292C6B
:1074100025642C252E32662C252E32662C252E3204
:10742000662C252E32662C252E32662C252E3266B1
:10743000000000000D0A25642C25642C4F32202802
:1074400054657374204F32292C25642C252E326606
:107450002C252E32662C252E32662C252E32662CBB
:10746000252E32662C252E32660000000D0A25647A
:107470002C25642C4F325F5241572C25642C2564F7
:107480002C252E30662C252E32662C252E32662C8D
:10749000252E32662C252E32660000000D0A25644A
:1074A0002C25642C4149525F5241572C25642C25D0
:1074B000642C252E30662C252E32662C252E326625
:1074C0002C252E32662C252E326600000D0A506EB9
:1074D00065756D61746963735F7069645F7072690B
:1074E0006E742025640000000D0A506E65756D6194
:1074F000746963735F4F325F7072696E74202564C4
:10750000000000000D0A50617469656E74205072AD
:107510006573737572652073656E736F723A20615F
:1075200064632068696768000D0A50617469656E5C
:10753000742050726573737572652073656E736F16
:10754000723A20616463206C6F7700000D0A204658
:10755000616E207370656564206C6F77657220744E
:1075600068616E2069742073686F756C6420626551
:10757000000000000D0A2046616E2073706565648E
:1075800020686967686572207468616E206974207C
:1075900073686F756C642062650000000D0A4169B4
:1075A0007220666C6F772073656E736F723A204637
:1075B0006C6F7720646574656374656420776865B3
:1075C0006E206E6F2061697220737570706C790027
:1075D0000D0A41697220666C6F772073656E736F58
:1075E000723A20466C6F77204E4F54206465746564
:1075F00063746564207768656E20616972207375B5
:1076000070706C7920617661696C20616E6420769F
:10761000616C766520656E61626C656400000000D7
:107620000D0A41697220666C6F772073656E736F07
:10763000723A20466C6F7720646574656374656484
:10764000207768656E2061697220737570706C793F
:1076500020617661696C20616E642076616C76656C
:107660002064697361626C65640000000D0A4F322A
:1076700020666C6F772073656E736F723A20466C6C
:107680006F77206465746563746564207768656EE0
:10769000206E6F204F3220737570706C790000007F
:1076A0000D0A4F3220666C6F772073656E736F72B0
:1076B0003A20466C6F77204E4F54206465746563A2
:1076C000746564207768656E204F32207375707022
:1076D0006C7920617661696C20616E642076616CE2
:1076E000766520656E61626C656400000D0A4F323C
:1076F00020666C6F772073656E736F723A20466CEC
:107700006F77206465746563746564207768656E5F
:10771000204F3220737570706C7920617661696CCE
:1077200020616E642076616C7665206469736162A5
:107730006C6564000D0A517569657420416C617255
:107740006D73202D20536574746C65202D20446961
:107750007361626C656400000D0A5175696574207F
:10776000416C61726D73202846694F3229202D20AB
:10777000536574746C65202D2044697361626C6577
:10778000640000000D0A517569657420416C6172D6
:107790006D73202D2055736572202D20446973610F
:1077A000626C6564000000000D0A5B4E6F2046614C
:1077B000756C74735D0000000D0A5B4661756C7436
:1077C0007320717569657465645D00000D0A5B4620
:1077D00061756C74735D00000D0A53797374656D87
:1077E00020416C61726D202D2025730909257300DD
:1077F0000D0A53656C66636865636B000D0A204C67
:1078000020537461747573204C6976650000000024
:107810000D0A205320537461747573000D0A2049BA
:107820002049676E6F7265000D0A205320536574FE
:10783000746C652071756965740000000D0A20552F
:107840002075736572207175696574000D0A2031A9
:107850002073696E676C6520616C6572740000004E
:107860000D0A205520757365722053696C656E632F
:107870006520636F756E74000D0A204420446574A2
:1078800065637420636F756E740000000D0A20201C
:1078900020205479706520207174202020636E743C
:1078A000000000000D0A204E6F204C205320495349
:1078B0005531205520446574206469732061636BE1
:1078C000206E616D650000000D0A202532642025C0
:1078D00064202564202564256425642564202564AE
:1078E00020202564202020256420202025730000EE
:1078F0000D0A2020202020202564202564202564D6
:10790000202564000D0A2020416C61726D2030201A
:1079100028533029202564000D0A2020416C617213
:107920006D20312028533129202564000D0A2020A4
:107930004175746F436C65617220202020256400BE
:107940000D0A5573657220202051756965742025D4
:10795000640000000D0A536574746C6520517569EC
:1079600065742025640000000D0A536574746C650D
:107970002046694F32202025640000000D0A53790B
:107980007374656D20416C61726D20256400000088
:107990000D0A517569657420416C61726D73202DFB
:1079A00020536574746C65202D20456E61626C6592
:1079B000640000000D0A517569657420416C6172A4
:1079C0006D73202D2055736572202D20456E6162E8
:1079D0006C6564000D0A41636B436C65617253749E
:1079E00061747573000000000D0A41636B436C65A0
:1079F0006172202D202573002D3E25730909257302
:107A0000000000000D0A41636B436C6561725374A2
:107A1000617475735F312073657420000D0A73659E
:107A20006C66636865636B5F4175746F436C656119
:107A300072203D20256400000D0A73656C66636842
:107A400065636B5F617564696F5F6D757465203D1B
:107A5000202564000D0A49676E6F7265466C616788
:107A60002023256420746F20256400000D0A202D3A
:107A70002D2D2D2D2D2D2D2D2D2D2D2D2D2D2D2D36
:107A80002D2D2D2D2D2D2D2D2D2D2D2D2D2D000080
:107A90000D0A206170705F73656C66636865636B67
:107AA000206D656E750000000D0A457363204578F2
:107AB0006974204D656E75000D0A612020204163B8
:107AC0006B636C65617253746174757300000000C0
:107AD0000D0A7520202055736572517569657441D2
:107AE0006C61726D53746172740000000D0A732032
:107AF0002020536574746C655175696574416C61BF
:107B0000726D5374617274000D0A702020207072BF
:107B1000696E74000D0A302D3520737767656E200D
:107B200073746174650000000D0A74202020726572
:107B30006475636520736574746C652074696D6524
:107B40007220746F203273000D0A79202020726534
:107B50006475636520757365722074696D65722044
:107B6000746F2032730000000D0A662020206661C9
:107B7000756C74206C697374000000000D0A5573F5
:107B800065725175696574416C61726D537461728F
:107B9000740000000D0A536574746C655175696555
:107BA00074416C61726D5374617274000D0A737765
:107BB00067656E207374617465203D20756E736512
:107BC000740000000D0A737767656E20737461742A
:107BD00065203D2070617373000000000D0A73770B
:107BE00067656E207374617465203D206E6F7469E3
:107BF000636500000D0A737767656E2073746174A6
:107C000065203D207761726E696E67000D0A73779B
:107C100067656E207374617465203D206661696CD0
:107C2000000000000D0A737767656E20737461743D
:107C300065203D206661696C2063726974696361C7
:107C40006C0000000D0A20536574746C65517569F1
:107C5000657420416C61726D207265647563656442
:107C600020746F20327300000D0A20557365725125
:107C70007569657420416C61726D2072656475630D
:107C8000656420746F203273000000000D0A4C6997
:107C9000737420437572204661756C747300000024
:107CA0000D0A2023256420257320257320256400D8
:107CB0000D0A456E640000000D0A506F7765725F13
:107CC0004F6666000D0A20455252202D20534F4624
:107CD00054425554544F4E2069643E6D6178000003
:107CE0000D0A4261747465727920697320746F6F34
:107CF000206C6F77202825666D41682025332E3152
:107D00006625252072656D61696E696E67290000C0
:107D10000D0A4572722055492E73637265656E2097
:107D200025640000494D475F41726D7374726F6E38
:107D3000675F4C6F676F0000494D475F41726D731D
:107D400074726F6E67000000494D475F4D6564694E
:107D500063616C00494D475F46443134306900002F
:107D60002D202D202D00000025642E2530326400AA
:107D70000D0A53656C66636865636B205549206422
:107D80006F6E6500494D475F5469635F36355F36F6
:107D900035000000494D475F43726F73735F36359E
:107DA0005F36350056656E747572690056656E747F
:107DB00020454E004E656220454E00002D506172F8
:107DC00061637562650000002532643A25303264D3
:107DD0002E25303264000000257320256420257391
:107DE00020256420000000002041706E6F65612036
:107DF0003D2025326473200020542025332E336625
:107E000043200000203556203D2025322E31665675
:107E100020000000202564200000000020257320A1
:107E200025342E30666D41682025322E31664300A0
:107E30002025322E3166562025312E336641000032
:107E4000202573202025332E316625252020200073
:107E50002025732000000000202532642573202592
:107E600030326425732025332E31662525202000ED
:107E7000202D2D20000000002564202532643A25A5
:107E80003032643A2530326420000000202532640C
:107E90002000000025322E33662000002020252EF1
:107EA0003166252520000000202025642573200050
:107EB0002020256425252573200000000D0A537716
:107EC00069746368204F6666000000003130302519
:107ED000000000004FB220726177000041697220FB
:107EE000526177004374726C204F32004374726C9D
:107EF00020416972000000004C6F636B2056616C7A
:107F00007565730056616C7665204D696E696D7597
:107F10006D00000025322E356620000025322E32FD
:107F20006620000025322E326600000020202564E5
:107F3000200000000D0A4F3220466C6F772043610D
:107F40006C2030206C2F6D696E20706F696E74002C
:107F50000D0A4F3220466C6F772043616C20313020
:107F6000206C2F6D696E20706F696E7400000000C8
:107F70000D0A4F3220466C6F772043616C203330FE
:107F8000206C2F6D696E20706F696E7400000000A8
:107F90000D0A4F3220466C6F772043616C203830D9
:107FA000206C2F6D696E20706F696E740000000088
:107FB0000D0A4F3220466C6F772043616C203132BE
:107FC00030206C2F6D696E20706F696E7400000038
:107FD0000D0A4F3220466C6F772043616C2031349C
:107FE00030206C2F6D696E20706F696E7400000018
:107FF0000D0A41697220466C6F772043616C203016
:10800000206C2F6D696E20706F696E740000000027
:108010000D0A41697220466C6F772043616C2031F4
:1080200030206C2F6D696E20706F696E74000000D7
:108030000D0A41697220466C6F772043616C2033D2
:1080400030206C2F6D696E20706F696E74000000B7
:108050000D0A41697220466C6F772043616C2038AD
:1080600030206C2F6D696E20706F696E7400000097
:108070000D0A41697220466C6F772043616C203194
:108080003230206C2F6D696E20706F696E74000045
:108090000D0A41697220466C6F772043616C203174
:1080A0003430206C2F6D696E20706F696E74000023
:1080B0000D0A4D6178204F322043616C203231250A
:1080C0002520706F696E74000D0A4D6178204F3263
:1080D0002043616C20313030252520706F696E742B
:1080E000000000000D0A50617469656E74205072C2
:1080F000657373757265202043616C203020636D59
:1081000048324F20706F696E740000000D0A506194
:108110007469656E74205072657373757265202082
:1081200043616C20343020636D48324F20706F699A
:108130006E74000025732025640000000D0A436161
:108140006C6962726174696F6E207074202564209E
:10815000787261773D2025642079726177203D2017
:108160002564000025732025642000000D0A556E4B
:108170006B6E6F776E2063616C6962726174696F98
:108180006E20737461746520256400000D0A556EBD
:108190007265676973746572656420736F667420B5
:1081A000627574746F6E20646574656374656420B1
:1081B0002564000043504150000000005061656498
:1081C0000000000048656C6D6574000042756262D5
:1081D0006C65000048464F5400000000504F494E67
:1081E000540000004350415020506165640000007D
:1081F000435041502048656C6D6574004275626261
:108200006C652050415000000D0A204F32204D6116
:1082100078206C696D6974202D2068617320626517
:10822000656E2070757368656420757000000000CD
:108230000D0A204F32204D6178206C696D697420E1
:108240002D20686173206265656E207075736865A6
:108250006420646F776E0000494D475F456E64533C
:10826000746F704C00000000494D475F456E6453C9
:10827000746F7052000000000D0A6C696D69745FC4
:108280006D696E203D256400494D475F536C6964FC
:10829000657249636F6E48616E64550020253364D2
:1082A00020000000494D475F536C69646572496363
:1082B0006F6E48616E644400494D475F416C617266
:1082C0006D53696C656E6365000000002564207362
:1082D000000000002564202573000000494D475F21
:1082E000536D656C6C353000494D475F41646A756C
:1082F0007374353000000000494D475F486F757258
:10830000676C617373353000494D475F416C617232
:108310006D62656C6C0000002525204FB2000000E6
:1083200020256420257320002532643A25303264EC
:108330003A2530326400000020253264000000003D
:108340002025312E31660000494D475F5761726E1E
:10835000696E6749636F6E002025643A2530326488
:1083600020000000494D475F416C61726D4D75748E
:108370006549636F6E000000494D475F4E65627549
:108380006C69736572446561637469766174656470
:1083900000000000494D475F4E6562756C6973656A
:1083A000724163746976617465640000494D475F8A
:1083B0004265657035300000494D475F416C617220
:1083C0006D566F6C00000000494D475F427269674F
:1083D00068746E657373353100000000494D475F66
:1083E0004C616E6775616765353000002025326429
:1083F0002020000020253032642000002020256449
:10840000202000002020257320200000202025337C
:10841000642525202000000020202564732025737A
:108420002020000020202564732020000D0A4469CC
:1084300073706C6179696E67204661756C74203D5C
:10844000256400000D0A556E6B6E6F776E20506FBD
:10845000707570207479706521000000756E6B6E08
:108460006F776E204661756C7400000074797065DA
:1084700020256400494D475F5761726E696E675FE2
:1084800049636F6E5F363078363000000D0A446500
:10849000636C696E65206F7074696F6E206E6F74A7
:1084A00020617661696C00000D0A41636365707438
:1084B000206F7074696F6E206E6F742061766169D1
:1084C0006C0000000D0A5369646562617220627578
:1084D0007431203D20256400494D475F4C6F636B2C
:1084E00065640000494D475F4765617231000000D7
:1084F0000D0A536964656261722062757432203DB1
:1085000020256400494D475F4261636B4172726F81
:1085100077000000494D475F436972636C655F47B0
:108520006F000000494D475F436972636C655F5897
:10853000000000000D0A5369646562617220627573
:108540007433203D20256400202532643A253032E2
:10855000642E25303264200020202025326420251E
:108560007320256420000000494D475F556E706CF4
:1085700075676765645F49636F6E00002025332E61
:1085800030662525000000002025322E3166252585
:10859000000000002020253264257320253032643D
:1085A0002573202000000000494D475F50726F671F
:1085B000726573735F253032640000000D0A4C6FE2
:1085C000636B2074696D65722072657365742077C2
:1085D00068656E2061742030000000000D0A2A2AB0
:1085E0002A2A4D6F646520417661696C6162696C0D
:1085F000697479206D656E752A2A2A2A00000000A8
:108600000D0A457363202045786974204D656E75A9
:10861000000000000D0A7620202020566965772092
:1086200063757272656E742073657474696E6773B6
:10863000000000000D0A7320202020536176652081
:1086400073657474696E6773000000000D0A312051
:1086500020202043504150000D0A3220202020438A
:108660005041505F50414544000000000D0A332046
:10867000202020435041505F48454C4D4554000058
:108680000D0A3420202020425542424C455F504183
:10869000500000000D0A352020202048464F54008D
:1086A0000D0A3620202020504F494E540000000073
:1086B0000D0A536176652053657474696E677300A3
:1086C0000D0A2E2E2E000000446F6E650000000083
:1086D0000D0A43757272656E742043657474696E19
:1086E000677300000D0A202D4350415020202020A8
:1086F00020202020202564000D0A202D43504150C9
:108700002050616564202020202564000D0A202D62
:10871000435041502048656C6D65742020256400ED
:108720000D0A202D427562626C6520504150202058
:10873000202564000D0A202D48464F54202020207B
:1087400020202020202564000D0A202D504F494E66
:108750005420202020202020202564000D0A656E52
:1087600064000000020304052606070809270A0B17
:10877000120D170E101113140001160032005E01C5
:1087800032005E0132005E0114001400AF00AF0041
:108790004A014A01456E676C697368004672616EF2
:1087A000C3A76169736500004465757473636800ED
:1087B00045737061C3B16F6C000000004E65746852
:1087C00065726C616E647365000000004974616CD1
:1087D00069616E6F00000000D8B9D8B1D8A8D98AF5
:1087E0000000000053756F6D690000004E6F7273DA
:1087F0006B000000506F7274756775C3AA73000038
:10880000CEB5CEBBCEBBCEB7CEBDCEB9CEBACEAC3A
:1088100000000000496E646F6E65736961000000BE
:108820004C6174766965C5A175000000506F6C736A
:108830006B69000052756D75C584736B690000002B
:108840005376656E736B610054C3BC726BC3A765CE
:10885000000000005469E1BABF6E67205669E1BBB1
:1088600087740000D98AD986D8A7D98AD8B10000E0
:10887000D981D8A8D8B1D8A7D98AD8B1000000002A
:10888000D985D8A7D8B1D8B300000000D8A3D8A8FC
:10889000D8B1D98AD9840000D985D8A7D98AD988EE
:1088A00000000000D98AD988D986D98AD9880000E1
:1088B000D98AD988D984D98AD9880000D8A3D8BAC6
:1088C000D8B3D8B7D8B30000D8B3D8A8D8AAD98518
:1088D000D8A8D8B100000000D8A3D983D8AAD988D5
:1088E000D8A8D8B100000000D986D988D981D98507
:1088F000D8A8D8B100000000D8AFD98AD8B3D9859C
:10890000D8A8D8B100000000D8A7D984D8A3D8AD82
:10891000D8AF0000D8A7D984D8A5D8ABD986D98A32
:10892000D9860000D8A7D984D8ABD984D8A7D8AB2A
:10893000D8A7D8A100000000D8A7D984D8A3D8B15F
:10894000D8A8D8B9D8A7D8A100000000D8A7D98442
:10895000D8AED985D98AD8B300000000D8A7D98469
:10896000D8ACD985D8B9D8A900000000D8A7D98437
:10897000D8B3D8A8D8AA0000D8BAD98AD8B120D9F3
:1089800085D98FD8B9D98AD991D98ED986000000D6
:10899000D8A7D8ACD8AAD8A7D8B20000D8AAD98668
:1089A000D8A8D98AD9870000D8AAD8ADD8B0D98A92
:1089B000D8B10000D8B9D8B7D9840000D8B9D8B791
:1089C000D98420D8ACD8B3D98AD98500D982D8B176
:1089D000D8A7D8A1D8A92FD983D8AAD8A7D8A8D83A
:1089E000A920D8A7D984D8B0D8A7D983D8B1D8A975
:1089F00000000000D8B3D8A7D8B9D8A920D8A7D9E3
:108A000084D988D982D8AA20D8A7D984D8ADD982C8
:108A1000D98AD982D98A0000D985D8B9D8A7D98A64
:108A2000D8B1D8A920D8AAD8AFD981D98220D8A7BF
:108A3000D984D8A3D983D8B3D8ACD98AD9862028E9
:108A4000D8A32900D985D8B9D8A7D98AD8B1D8A9A7
:108A500020D8AAD8AFD981D98220D8A7D984D8A3C1
:108A6000D983D8B3D8ACD98AD9862028D8A82900E8
:108A7000D985D8B9D8A7D98AD8B1D8A920D8AAD8A1
:108A8000AFD981D98220D8A7D984D8A3D983D8B324
:108A9000D8ACD98AD9862028D8AC2900D985D8B9AC
:108AA000D8A7D98AD8B1D8A920D8AAD8AFD981D97E
:108AB0008220D8A7D984D8A3D983D8B3D8ACD98AEF
:108AC000D9862028D8AF2900D985D8B9D8A7D98A7E
:108AD000D8B1D8A920D8AAD8AFD981D98220D8A70F
:108AE000D984D987D988D8A7D8A12028D8A3290084
:108AF000D985D8B9D8A7D98AD8B1D8A920D8AAD821
:108B0000AFD981D98220D8A7D984D987D988D8A7C5
:108B1000D8A12028D8A82900D985D8B9D8A7D98A1A
:108B2000D8B1D8A920D8AAD8AFD981D98220D8A7BE
:108B3000D984D987D988D8A7D8A12028D8AC29002A
:108B4000D985D8B9D8A7D98AD8B1D8A920D8AAD8D0
:108B5000AFD981D98220D8A7D984D987D988D8A775
:108B6000D8A12028D8AF2900D985D8B9D8A7D98AC3
:108B7000D8B1D8A920D985D8B3D8AAD8B4D8B9D86B
:108B8000B120D8A7D984D8A3D983D8B3D8ACD98AEF
:108B9000D9860000D985D8B9D8A7D98AD8B1D8A99B
:108BA00020D985D8B3D8AAD8B4D8B9D8B120D8B6E6
:108BB000D8BAD8B720D8A7D984D985D8B1D98AD876
:108BC000B620285050292000D8AED8B7D8A320D836
:108BD000B9D8A7D98520D981D98A20D8A7D984D84E
:108BE000A8D8B1D986D8A7D985D8AC00D8A7D984B8
:108BF000D8A8D8B7D8A7D8B1D98AD8A9000000007A
:108C00003520D981D988D984D8AA0000323420D916
:108C100081D988D984D8AA00D8A5D985D8AFD8A7B2
:108C2000D8AF20D8A7D984D987D988D8A7D8A10008
:108C3000D8A5D985D8AFD8A7D8AF20D8A7D984D8F8
:108C4000A3D983D8B3D8ACD98AD98600D985D8B569
:108C5000D8AFD8B120D8A7D984D8AAD98AD8A7D8CC
:108C6000B120D8A7D984D985D8AAD8B1D8AFD8AFE0
:108C700000000000D985D8B3D8AAD8B4D8B9D8B1E3
:108C800020D8A7D984D8A3D983D8B3D8ACD98AD9C6
:108C900086000000D8B9D98AD8A820D981D98A20DD
:108CA000D8A7D984D985D8B3D8AAD8B4D8B9D8B1D7
:108CB00000000000D8B6D8BAD8B720D985D8B7D91F
:108CC00088D991D98420D8B9D984D98920D8B4D861
:108CD000A7D8B4D8A920D8A7D984D984D985D8B39E
:108CE00000000000D8B6D8BAD8B720D985D8B7D9EF
:108CF00088D991D98420D8B9D984D98920D8A7D93D
:108D000084D985D981D8AAD8A7D8AD00D8B4D8AD90
:108D1000D98620D8A7D984D8A8D8B7D8A7D8B1D908
:108D20008AD8A900D985D8B9D8A7D98AD8B1D8A95D
:108D300020D8A7D984D8A3D983D8B3D8ACD98AD915
:108D400086000000D8A7D984D8ADD8AF20D8A7D93D
:108D500084D8A3D8AFD986D98920D984D8B6D8BA2F
:108D6000D8B720D8A7D984D985D8B1D98AD8B62080
:108D70002850502920000000D8A7D984D8ADD8AFFA
:108D800020D8A7D984D8A3D982D8B5D98920D984A5
:108D9000D8B6D8BAD8B720D8A7D984D985D8B1D968
:108DA0008AD8B6202850502920000000D8A7D9869C
:108DB000D982D8B7D8A7D8B920D8A7D984D986D985
:108DC00081D8B300D8A7D984D8ADD8AF20D8A7D937
:108DD00084D8A3D982D8B5D98920D984D985D8B9DE
:108DE000D8AFD98420D8A7D984D8AAD986D981D890
:108DF000B3000000D8ADD8AF20D8A7D984D8B6D852
:108E0000BAD8B72000000000D8A7D8B1D8AAD98115
:108E1000D8A7D8B920D986D8B3D8A8D8A920D8A798
:108E2000D984D8A3D983D8B3D8ACD98AD98620D845
:108E3000A7D984D985D98FD8B3D8AAD986D8B4D997
:108E400082000000D8A7D986D8AED981D8A7D8B6D5
:108E500020D986D8B3D8A8D8A920D8A7D984D8A390
:108E6000D983D8B3D8ACD98AD98620D8A7D984D900
:108E700085D98FD8B3D8AAD986D8B4D982000000B2
:108E80004E6F742055736564203332004E6F74202A
:108E90005573656420333300D8A7D8B9D98AD8A8C8
:108EA00020D981D98A20D8A7D984D985D8B1D988A1
:108EB000D8ADD8A9000000004E6F742055736564CA
:108EC00000000000D985D8B9D8A7D98AD8B1D8A9C7
:108ED00020D8AAD8AFD981D98220D8A7D984D8A33D
:108EE000D983D8B3D8ACD98AD9862028652900007F
:108EF000D985D8B9D8A7D98AD8B1D8A920D8AAD81D
:108F0000AFD981D98220D8A7D984D987D988D8A7C1
:108F1000D8A1202865290000D8A7D984D8B1D98242
:108F2000D98520D8A7D984D8AAD8B3D984D8B3D919
:108F300084D98A2000000000D8A7D984D8A5D8B544
:108F4000D8AFD8A7D8B13A2000000000D986D8AA57
:108F5000D98AD8ACD8A920D8A7D984D981D8ADD8F6
:108F6000B520D8A7D984D8B0D8A7D8AAD98A000064
:108F7000D8ACD8A7D8B1D98D20D8A7D984D8B4D89F
:108F8000ADD98600D8A7D984D987D988D8A7D8A140
:108F900000000000D8A7D984D8AAD8AFD981D98237
:108FA00000000000D8A7D984D8A3D983D8B3D8ACFF
:108FB000D98AD98600000000D8AAD8B1D983D98A25
:108FC000D8B220D8A7D984D8A3D983D8B3D8ACD95C
:108FD0008AD986002DD984D8ADD8AF20D8A7D98416
:108FE000D8A3D982D8B5D989203235300000000005
:108FF0002DD8A7D984D987D988D8A7D8A1000000AF
:109000002DD8A7D984D8A3D983D8B3D8ACD98AD935
:10901000860000002DD8A7D984D8A5D8ACD985D88A
:10902000A7D984D98A200000D8A7D984D985D8B1F6
:10903000D98AD8B600000000D8A7D984D8B6D8BA43
:10904000D8B70000202D20D8A5D8B9D8AFD8A7D838
:10905000AF20D8A7D984D8AAD8AFD981D9820000A7
:10906000D986D8B3D8A8D8A920D8A7D984D8A3D9C5
:1090700083D8B3D8ACD98AD9862028252900000006
:10908000D8B6D8BAD8B72028435041502920D8B3F1
:10909000D986D8AAD98AD985D8AAD8B120D985D8CD
:1090A000A7D8A12028636D48C2B24F290000000054
:1090B000D8A7D984D8ADD8AF20D8A7D984D8A3D879
:1090C000AFD986D98920D984D984D8B6D8BAD8B7A7
:1090D00020000000D8A7D984D8ADD8AF20D8A7D910
:1090E00084D8A3D982D8B5D98920D984D984D8B6CF
:1090F000D8BAD8B720000000D8A7D984D8ADD8AF47
:1091000020D8A7D984D8A3D982D8B5D98920D98421
:10911000D985D8B9D8AFD98420D8A7D984D8AAD925
:1091200086D981D8B3200000202D20D8A5D8B9D861
:10913000AFD8A7D8AF20D8A7D984D8AAD8AFD9811B
:10914000D982202D20D8AAD8AED8B7D98A2000003D
:10915000D8AAD981D8B9D98AD98420D8A7D984D90D
:1091600085D8B9D8A7D98AD8B1D8A92000000000DD
:10917000D981D8B5D98420D8A7D984D8AAD98AD8F2
:10918000A7D8B100D8A7D984D985D8A4D982D8AA1C
:1091900000000000D8A7D984D985D8B1D988D8AD26
:1091A000D8A90000D8A7D984D8B5D988D8AA0000F2
:1091B000D8B1D981D8B920D8A7D984D8B5D988D879
:1091C000AA2B2000D8AED981D8B620D8A7D984D868
:1091D000B5D988D8AA2D2000D8A7D984D985D98215
:1091E000D98AD8A7D8B30000D8A7D984D8AAD8AD2F
:1091F000D983D98520D8A7D984D983D984D98A207D
:1092000000000000D8A7D984D8AAD8ADD983D985C1
:1092100020D981D98A20D8A7D984D8AAD987D98832
:10922000D98AD8A900000000D8AAD8AFD981D9829C
:1092300020D8A7D984D987D988D8A7D8A100000079
:10924000D8AAD8AFD981D98220D8A7D984D8A3D910
:1092500083D8B3D8ACD98AD986000000D985D8B9CB
:10926000D8A7D98AD8B1D8A920D8A7D984D985D8E0
:10927000B3D8AAD8B4D8B9D8B1D8A7D8AA00000012
:10928000D8B3D986D8AAD98AD985D8AAD8B120D9AD
:1092900085D8A7D8A12028636D48C2B24F29000005
:1092A000D985D8B9D8AFD98420D8A7D984D8AAD994
:1092B00086D981D8B3200000D984D8AAD8B12FD8B4
:1092C000AFD982D98AD982D8A9000000D8B3D8A74B
:1092D000D8B9D8A920000000D8AFD982D98AD982BC
:1092E000D8A920002FD8AFD982D98AD982D8A9206D
:1092F00000000000D98AD988D9850000D8A3D98A6E
:10930000D8A7D98500000000D987D98420D8AAD849
:10931000B1D98AD8AF20D985D8B9D8A7D98AD8B138
:10932000D8A920D8A7D984D985D8B3D8AAD8B4D8F1
:10933000B9D8B1D89F000000D8AAD986D8A8D98AB0
:10934000D9873A20D8B3D8AAD8B3D8AAD8BAD8B12E
:10935000D98220D987D8B0D98720D8A7D984D8B9BD
:10936000D985D984D98AD8A920373520D8ABD8A7B0
:10937000D986D98AD8A90000D985D8B9D8A7D98AD9
:10938000D8B1D8A920D8B4D8A7D8B4D8A920D8A7FC
:10939000D984D984D985D8B300000000504F494EF4
:1093A00054000000D985D983D8AAD985D984200052
:1093B000D8A5D98AD982D8A7D98120D8AAD8B4D893
:1093C000BAD98AD98420D8A7D984D8ACD987D8A7C4
:1093D000D8B20000D986D8B9D9850000D984D8A7D9
:1093E00000000000D98AD8B1D8ACD98920D8A7D933
:1093F00084D8A7D986D8AAD8B8D8A7D8B1000000F1
:10940000D985D8AAD8A8D982D98A0000D8AAD8A341
:10941000D983D98AD8AF20D8A7D984D8A5D8ACD831
:10942000B1D8A7D8A1000000D8A7D984D982D8A7DD
:10943000D8A6D985D8A90000D985D988D8A7D98137
:10944000D9820000D8A8D8B7D8A7D8B1D98AD8A9C6
:1094500020000000D985D8B3D8AAD988D98920D8C6
:10946000A7D984D8B5D988D8AA200000D8A5D98A88
:10947000D982D8A7D9810000202D20D8A5D8B9D865
:10948000AFD8A7D8AFD8A7D8AA20D8A7D984D8A5AD
:10949000D986D8B0D8A7D8B100000000D985D8B9EE
:1094A000D8B7D98400000000D8AAD8A3D983D98A14
:1094B000D8AF0000D8A5D986D8B0D8A7D8B10000B9
:1094C000D8AAD8ACD8B1D98AD8A8D98A00000000C7
:1094D000D8A5D98AD982D8A7D98120D8A7D984D8A4
:1094E000AAD8B4D8BAD98AD984000000D983D8AA16
:1094F000D98520D8A5D986D8B0D8A7D8B120D8A7E3
:10950000D984D986D8B8D8A7D9850000D8A5D98458
:10951000D8BAD8A7D8A120D982D981D98420D8A7F0
:10952000D984D8B4D8A7D8B4D8A90000D8A5D98AE6
:10953000D982D8A7D98120D8A7D984D8B9D984D835
:10954000A7D8AC00D8AAD8A3D983D98AD8AF20D8B5
:10955000AAD8AED8B7D98A20D8A7D984D8AAD8AFE4
:10956000D981D98200000000D8A7D984D8AED8B15B
:10957000D988D8AC20D985D98620D8AAD8AED8B772
:10958000D98A20D8A7D984D8AAD8AFD981D982D8E6
:109590008C202D20D8AAD8A8D986D991D98E20D8A8
:1095A000A7D984D8AAD8BAD98AD98AD8B100000054
:1095B000D8A7D984D8AED8B1D988D8AC20D985D984
:1095C0008620D8AAD8AED8B7D98A20D8A7D984D827
:1095D000AAD8AFD981D982D88C202D20D984D8A7F8
:1095E00020D98AD988D8ACD8AF20D8AAD8BAD98AF5
:1095F000D98AD8B100000000D8B6D8A8D8B720D8EA
:10960000AAD8AED8B7D98A20D8A7D984D8AAD8AF33
:10961000D981D98200000000D984D8A720D98AD95D
:1096200088D8ACD8AF20D8AAD8BAD98AD98AD8B124
:1096300000000000D8AAD8A3D983D98AD8AF20D8EF
:10964000AAD8BAD98AD98AD8B120D8A5D8B9D8AFDA
:10965000D8A7D8AF20D8A7D984D8AAD8AFD981D9CC
:1096600082000000D8AAD8A3D983D98AD8AF20D83D
:10967000AAD8BAD98AD98AD8B120D8A7D984D8A5E6
:10968000D986D8B0D8A7D8B100000000D8AAD8A3EE
:10969000D983D98AD8AF20D8AAD8BAD98AD98AD8B2
:1096A000B120D8ACD987D8A7D8B220D8A7D984D828
:1096B000B1D8B0D8A7D8B000D8AAD98520D981D838
:1096C000B5D98420D985D8B5D8AFD8B120D8A7D9F5
:1096D00084D8AAD98AD8A7D8B120D8A7D984D8B194
:1096E000D8A6D98AD8B3D98A00000000D8A7D984CF
:1096F000D8A7D8B3D8AAD985D8B1D8A7D8B120D8F7
:10970000A8D8B7D8A7D982D8A920D8A7D984D8A84B
:10971000D8B7D8A7D8B1D98AD8A920D981D982D821
:10972000B7000000D987D98420D8AAD8B1D98AD85F
:10973000AF20D985D8B9D8A7D98AD8B1D8A920D986
:1097400085D8B3D8AAD8B4D8B9D8B120D8A7D984E5
:10975000D8A3D983D8B3D8ACD98AD98620D8A7D9E9
:1097600084D8A2D986D89F00D985D8B9D8AFD98452
:1097700020D8A7D984D8AAD8AFD981D98220D8BA7D
:10978000D98AD8B120D983D8A7D981D98D20D984B5
:10979000D8ACD987D8A7D8B220D8A7D984D8B1D87F
:1097A000B0D8A7D8B02E0000D987D98420D8AAD89D
:1097B000B1D8BAD8A820D981D98A20D8B2D98AD824
:1097C000A7D8AFD8A920D985D8B9D8AFD98420D8FF
:1097D000A7D984D8AAD8AFD981D98220D8A5D984CD
:1097E000D98920313020D984D8AAD8B12FD8AFD97F
:1097F00082D98AD982D8A9D89F000000D981D8B44B
:10980000D98420D8A7D984D985D8B9D8A7D98AD856
:10981000B1D8A900D8AAD986D8A8D98AD9873A2098
:10982000D984D8A720D98AD988D8ACD8AF20D8A5D0
:10983000D985D8AFD8A7D8AF20D987D988D8A7D805
:10984000A1000000D8AAD986D8A8D98AD9873A20F9
:10985000D984D8A720D98AD988D8ACD8AF20D8A5A0
:10986000D985D8AFD8A7D8AF20D8A3D983D8B3D8B3
:10987000ACD98AD986000000D987D98420D8AAD843
:10988000B1D98AD8AF20D8B6D8A8D8B720D8A5D80B
:10989000B9D8AFD8A7D8AFD8A7D8AA20D8A7D98485
:1098A000D8AAD8AFD981D982D89F0000D8AAD986A2
:1098B000D8A8D98AD9873A20D98AD8AAD988D9816B
:1098C000D8B120D985D8B5D8AFD8B1D8A7D98620F6
:1098D000D984D8A5D985D8AFD8A7D8AF20D8A7D94B
:1098E00084D8BAD8A7D8B200D985D8B3D8AAD9888D
:1098F000D98920D8B4D8ADD98620D8A7D984D8A8FA
:10990000D8B7D8A7D8B1D98AD8A920D8ADD8B1D8D6
:10991000AC000000D8AAD988D982D98120D8A7D98B
:1099200084D8B9D984D8A7D8AC000000D8B3D98AD4
:10993000D8AAD98520D8A5D98AD982D8A7D98120F3
:10994000D8AAD8B4D8BAD98AD98420D8A7D984D8E3
:10995000ACD987D8A7D8B220D8AED984D8A7D98413
:1099600000000000D984D8A720D98AD988D8ACD8DB
:10997000AF20D8A5D985D8AFD8A7D8AF20D8A8D838
:10998000A7D984D8BAD8A7D8B2000000D8A8D8AF31
:10999000D8A120D8B9D984D8A7D8AC2043504150F9
:1099A00000000000D8A8D8AFD8A120D8B9D984D851
:1099B000A7D8AC20435041502028D984D984D8A3BB
:1099C000D8B7D981D8A7D98429000000D8A8D8AFA2
:1099D000D8A120D8B9D984D8A7D8AC2043504150B9
:1099E00020D8A8D8A7D8B3D8AAD8AED8AFD8A7D9E6
:1099F0008520D8A7D984D8AED988D8B0D8A90000F6
:109A0000D8A8D8AFD8A120D8B9D984D8A7D8AC20A5
:109A1000425542424C45205041500000D8A8D8AF92
:109A2000D8A120D8B9D984D8A7D8AC2048464F545B
:109A300000000000D8A8D8AFD8A120D8B9D984D8C0
:109A4000A7D8AC20504F494E540000000000000041
:109A50000000000000249249040000000000A52836
:109A60000000000000000000000000121222FF248D
:109A700024FF484848000000000001C54A14381C73
:109A80002952A382000000000000000003084904DE
:109A9000904A032004C05209209210C00000000028
:109AA00000000003024120903030249148C3980008
:109AB0000000000001500000000122444444422103
:109AC000000844222222244800004F914000000058
:109AD0000000000000000000000808087F080808D7
:109AE0000000000000000000000022200000000034
:109AF0000E000000000000000000400000011222E3
:109B000044488000000003C850A142850A14278001
:109B100000000000000000830A04081020408100BB
:109B200000000000000003C84081020820820FC02E
:109B300000000000000003C840811C0408142780B6
:109B40000000000000000041830A144893F04080A8
:109B500000000000000003E408207C840814278033
:109B600000000000000003C850205CC50A142780D4
:109B700000000000000007E081040820410204000A
:109B800000000000000003C850A13C850A14278093
:109B900000000000000003C850A1467408144700EC
:109BA00000000000000000400000400000000040F5
:109BB000000044400000000000020C3040300C0265
:109BC00000000000000000000000FE0000FE000099
:109BD00000000000000000000040300C020C30408B
:109BE00000000000000001C4488104104080020011
:109BF0000000000000000000001F030420113A5282
:109C000032A09508A8494649DC20088183F000006D
:109C1000000000010140A05044223F90501808006D
:109C2000000000000000000FC4120904FC41209055
:109C30004827E00000000000000000038222090025
:109C4000804020104441C000000000000000000FD0
:109C500084220904824120904847C000000000008F
:109C60000000000FE4020100FE4020100807F00091
:109C7000000000000000007E4040407C404040402A
:109C800040000000000000007821102401004790EF
:109C90002408841E000000000000000824120904AB
:109CA000FE4120904824100000000000002492494A
:109CB000240000000000020820820828A270000092
:109CC0000000000814121110905832108824080067
:109CD000000000000000020408102040810207E09C
:109CE000000000000000000020260CC194528A4AA7
:109CF0004949292224440000000000000000000817
:109D00002612894492492291486410000000000004
:109D10000000000078211024090240902408841ECD
:109D2000000000000000000FC4120904827E201011
:109D3000080400000000000000000000782110244A
:109D4000090240902468841E800000000000000F7B
:109D5000C4120904827E2210884410000000000012
:109D600000000007C4120900700600904823E000BC
:109D700000000000000007F10204081020408100EC
:109D80000000000000000008241209048241209015
:109D90004441C000000000000000000020240441F5
:109DA0000820881101402802004000000000000047
:109DB0000000000001041850A2891448A228A145FF
:109DC0000A282081040000000000000000000414A4
:109DD000488A0810511228200000000000000008E6
:109DE0002221105028080402010080000000000019
:109DF000000003F04102081040820FE00000000064
:109E0000000644444444444600088444222110008F
:109E10000006222222222226000002294A8800006F
:109E20000000000000000000000000000000000032
:109E3000007F00000004200000000000000000007F
:109E4000000E2204791263400000000000000204AA
:109E5000081632448912278000000000000000002C
:109E6000000E22408102238000000000000000203C
:109E7000408D2644891223C000000000000000002D
:109E8000000E2244F902238000000000000344E495
:109E90004444400000000000000D26448912634045
:109EA000911C00000000020408163244891224406C
:109EB00000000000002012492400000000100924C6
:109EC000924E00000000020408112450E122444098
:109ED000000000000024924924000000000000005F
:109EE0000000000016633244488911222444000017
:109EF00000000000000000000016324489122440D7
:109F00000000000000000000000E2244891223809F
:109F1000000000000000000000163244891325886C
:109F20001020000000000000000D2644891263404C
:109F30008102000000000056444440000000000080
:109F4000000E22407012238000000000000044E454
:109F5000444460000000000000112244891223C024
:109F60000000000000000002315294420000000096
:109F7000000000000000022311552A9544422000F1
:109F800000000000000000000011142820A144403F
:109F900000000000000000000011222850A08102F3
:109FA0000430000000000000001F0408208107C0EA
:109FB0000000000000024444484444420024924906
:109FC000249000000004222221222224000000000C
:109FD000000000729E000000000000000000000071
:109FE000007924F000000000000010001010102084
:109FF0004042423C100400010140A05044223F90E6
:10A000005018080000000000040400010140A050A6
:10A0100044223F9050180800000000000C09000185
:10A020000140A05044223F9050180800000000005A
:10A030000A0A00010140A05044223F905018080035
:10A0400000000000000A00010140A05044223F909F
:10A050005018080000000000000E05038140A050C9
:10A0600044223F905018080000000000000000004B
:10A07000000FF090048024023F1101F80840820490
:10A080001F80000000000000000000038222090081
:10A09000804020104441C040103800001004000FE0
:10A0A000E4020100FE4020100807F000000000005C
:10A0B0000404000FE4020100FE4020100807F00035
:10A0C000000000000C09000FE4020100FE40201017
:10A0D0000807F00000000000000A000FE402010081
:10A0E000FE4020100807F00000000000882492497C
:10A0F0002400000028249249240000003120082078
:10A1000082082082082000001424924924000000C4
:10A110000A0A0008261289449249229148641000D4
:10A12000000000000801000078211024090240907E
:10A130002408841E0000000004020000782110247E
:10A14000090240902408841E000000000C048000D6
:10A1500078211024090240902408841E0000000089
:10A160000A05000078211024090240902408841E6A
:10A1700000000000000280007821102409024090B5
:10A180002408841E00000000000000007A2110A4B2
:10A19000291248922508845E00000000100400087F
:10A1A00024120904824120904441C00000000000B4
:10A1B0000404000824120904824120904441C00094
:10A1C000000000000C0900082412090482412090BC
:10A1D0004441C00000000000000A000824120904E5
:10A1E000824120904441C0000000000004040008A7
:10A1F0002221105028080402010080000000000005
:10A2000000000080800E22047912634000000000EC
:10A2100000000041000E220479126340000000009B
:10A22000000000C2400E22047912634000000000CA
:10A23000000000A2800E220479126340000000009A
:10A2400000000002800E220479126340000000002A
:10A250000000E143800E22047912634000000000F8
:10A260000000000000000000003DC4621C227E448B
:10A27000046239C00000000000000000000E22400F
:10A2800081022382021C000000000101000E224412
:10A29000F90223800000000000000041000E22446B
:10A2A000F902238000000000000000C2400E22449A
:10A2B000F90223800000000000000002800E22440A
:10A2C000F90223800000000000441249240000002D
:10A2D000001412492400000000000C4802082082EB
:10A2E00008200000000A124924000000000000A21B
:10A2F0008016324489122440000000000000010151
:10A30000000E22448912238000000000000000415A
:10A31000000E22448912238000000000000000C2C9
:10A32000400E22448912238000000000000000A299
:10A33000800E2244891223800000000000000002E9
:10A34000800E2244891223800000000000000000DB
:10A35000000D244CA991258000000000000001019F
:10A3600000112244891223C00000000000000041B7
:10A3700000112244891223C000000000000000C226
:10A3800040112244891223C0000000000000000296
:10A3900080112244891223C000000000000F000138
:10A3A0000140A05044223F905018080000000000D7
:10A3B00000000003C00E2204791263400000000078
:10A3C00000000143800E2204791263400000000067
:10A3D0000000000F84220905F24120904847C00088
:10A3E0000000000000000021E08D2644891223C0F7
:10A3F0000000000000000003C00E2244F902238088
:10A400000000000000000000000E2244F902238238
:10A41000040C000000000143800D264489126340B3
:10A42000911C00000F044444444440000824924915
:10A43000240000000000124924000000002492497A
:10A44000241900000000020408143041810207E0D2
:10A4500000000000002493C9240000000404000749
:10A46000C4120900700600904823E00000000000BC
:10A4700000000041000E2240701223800000000006
:10A4800000000007C4120900700600904823E04055
:10A490001038000000000000000E224070122382DD
:10A4A000021C0000001E00082412090482412090B2
:10A4B0004441C0000000000000000003C01122441D
:10A4C000891223C00000000000000041001F0408A2
:10A4D000208107C00000000000000001001F0408E8
:10A4E000208107C0000000000000000020A41482AA
:10A4F000906208410821041101C000000000000022
:10A5000000000000000001148A4622110983400067
:10A51000000000000004BA49260900000000000104
:10A520007F900401007F10040100401FC000000064
:10A5300000000000282904208410FE104208410871
:10A540002104000000000000000000010140A050B4
:10A5500044223F9050180800000000000000000F47
:10A56000C4120904FC4120904827E00000000000CC
:10A57000000003F4081020408102040000000000E5
:10A58000000000010140A050442211104827F000B3
:10A59000000000000000000FE4020100FE40201057
:10A5A0000807F00000000000000000082412090461
:10A5B000FE41209048241000000000000024924931
:10A5C00024000000000000081412111090583210EE
:10A5D0008824080000000000000000010140A05095
:10A5E0004422111048241000000000000000000068
:10A5F00020260CC194528A4A494929222444000049
:10A6000000000000000000082612894492492291AF
:10A6100048641000000000000000007E0000003CC4
:10A62000000000007E0000000000000078211024DF
:10A63000090240902408841E000000000000000F62
:10A64000E412090482412090482410000000000018
:10A650000000000FC4120904827E201008040000CC
:10A66000000000000000007E402010081010204074
:10A670007E000000000007F1020408102040810065
:10A6800000000000000000082221105028080402E9
:10A6900001008000000000000000000101C1512401
:10A6A0009249248A83808000000000000000041486
:10A6B000488A081051122820000000000000000005
:10A6C000782110240902409024088473800000003F
:10A6D0000000000408003A44444444443A000000A6
:10A6E00000000210039140C4113800000000004136
:10A6F00000163244891224408102000000141249DD
:10A70000240000000000000000003A444444444497
:10A710003A000000000001C448912C4489132588A8
:10A7200010200000000000000011224450A141024E
:10A730000408000000000000039140C4113800002C
:10A7400000000000001632448912244081020000FB
:10A75000000001C448913E4489122380000000009B
:10A7600000001249240000000000000000112450E5
:10A77000E122444000000000000001020204082819
:10A78000511224400000000000000000001122448B
:10A79000891227C8102000000000000231529442A4
:10A7A0000000000000000E410388410410381046EC
:10A7B00000000000000E22448912238000000000E7
:10A7C00000000000000003FE442211088442200023
:10A7D0000000000000000000000E224489122788BB
:10A7E0001020000000000000018841041030208C7F
:10A7F0000000000000003F4444444444380000008E
:10A8000000000001C4210842000000000000000018
:10A810000011224489122380000000000000000083
:10A820000011222850408285112200000000000003
:10A830000000008882492492492360000000000043
:10A8400000000041000E2244891223800000000015
:10A8500000000082001122448912238000000000C1
:10A860000000000000321C4000000000014C1249B2
:10A87000000000000000002106000C51C10BC000C8
:10A880000024924905300000002492490000000095
:10A8900000000000000000008280C05FE000800037
:10A8A000000000000000480699E0000000000000E1
:10A8B000000040408280C05FE00000000000000017
:10A8C000000000000000C0408280C05FE000000087
:10A8D0000000000000000000000000FC61044810BF
:10A8E000203C000000000000000000FC6104081093
:10A8F000203C000000000000000400FC610408107F
:10A90000203C000000000021117000000000000049
:10A91000000204104189C000000000004002041041
:10A920004189C00000000000000000000000920A01
:10A9300029663FC40881E00000000000000000001C
:10A94000000018020000920A29663FC40881E00056
:10A9500000000000000000000000000000000000F7
:10A960000107022509183FE0808201F00000000085
:10A9700000000000000000000001000001070225A7
:10A9800009183FE0808201F0000000000000203044
:10A99000201010101719FF00000000000000000038
:10A9A00000184088E1040810203C0000000000026C
:10A9B00000184088E1040810203C0000000000005E
:10A9C000000000400103816077FC000000000000EF
:10A9D000000000000004080006498F81817E00000D
:10A9E000000002030A323A89B9817F0000000000AA
:10A9F0000000103040811143060C17C00000000019
:10AA00000000000061788888000000000008020251
:10AA1000860C184F000000000000000699E00000BE
:10AA20000000000000000C51C10BC000000000003D
:10AA30000000000608509E8284780000000000009C
:10AA40000000000608509E8284781020000000005C
:10AA5000000E220479126340040000001C0400016F
:10AA60000140A05044223F90501808000000000010
:10AA7000000001C1000E22047912634000000000B2
:10AA8000040405010140A05044223F9050180800E2
:10AA900000000000082000C2400E2204791263402A
:10AAA000000000001C1000C2400E22047912634016
:10AAB00000000000000000C2400E22047912634032
:10AAC0000400000008200143800E22047912634034
:10AAD0000000000000000000000E2244F902238064
